{
  "contractName": "Adoption",
  "abi": [
    {
      "constant": true,
      "inputs": [
        {
          "internalType": "uint256",
          "name": "",
          "type": "uint256"
        }
      ],
      "name": "adopters",
      "outputs": [
        {
          "internalType": "address",
          "name": "",
          "type": "address"
        }
      ],
      "payable": false,
      "stateMutability": "view",
      "type": "function"
    },
    {
      "constant": true,
      "inputs": [
        {
          "internalType": "address",
          "name": "",
          "type": "address"
        }
      ],
      "name": "balances",
      "outputs": [
        {
          "internalType": "uint256",
          "name": "",
          "type": "uint256"
        }
      ],
      "payable": false,
      "stateMutability": "view",
      "type": "function"
    },
    {
      "constant": true,
      "inputs": [],
      "name": "myAds",
      "outputs": [
        {
          "internalType": "address",
          "name": "",
          "type": "address"
        }
      ],
      "payable": false,
      "stateMutability": "view",
      "type": "function"
    },
    {
      "constant": false,
      "inputs": [
        {
          "internalType": "uint256",
          "name": "petId",
          "type": "uint256"
        }
      ],
      "name": "adopt",
      "outputs": [
        {
          "internalType": "uint256",
          "name": "",
          "type": "uint256"
        }
      ],
      "payable": false,
      "stateMutability": "nonpayable",
      "type": "function"
    },
    {
      "constant": true,
      "inputs": [],
      "name": "getAdopters",
      "outputs": [
        {
          "internalType": "address[16]",
          "name": "",
          "type": "address[16]"
        }
      ],
      "payable": false,
      "stateMutability": "view",
      "type": "function"
    },
    {
      "constant": false,
      "inputs": [
        {
          "internalType": "address",
          "name": "_to",
          "type": "address"
        },
        {
          "internalType": "uint256",
          "name": "_amount",
          "type": "uint256"
        }
      ],
      "name": "shop",
      "outputs": [
        {
          "internalType": "bool",
          "name": "",
          "type": "bool"
        }
      ],
      "payable": true,
      "stateMutability": "payable",
      "type": "function"
    },
    {
      "constant": true,
      "inputs": [],
      "name": "show",
      "outputs": [
        {
          "internalType": "uint256",
          "name": "",
          "type": "uint256"
        }
      ],
      "payable": false,
      "stateMutability": "view",
      "type": "function"
    },
    {
      "constant": false,
      "inputs": [
        {
          "internalType": "address",
          "name": "_from",
          "type": "address"
        },
        {
          "internalType": "address",
          "name": "_to",
          "type": "address"
        },
        {
          "internalType": "uint256",
          "name": "_amount",
          "type": "uint256"
        }
      ],
      "name": "toAccount",
      "outputs": [
        {
          "internalType": "bool",
          "name": "",
          "type": "bool"
        }
      ],
      "payable": true,
      "stateMutability": "payable",
      "type": "function"
    },
    {
      "constant": true,
      "inputs": [
        {
          "internalType": "address",
          "name": "ads",
          "type": "address"
        }
      ],
      "name": "showBalances",
      "outputs": [
        {
          "internalType": "uint256",
          "name": "",
          "type": "uint256"
        }
      ],
      "payable": false,
      "stateMutability": "view",
      "type": "function"
    }
  ],
  "bytecode": "0x608060405234801561001057600080fd5b5061087a806100206000396000f3fe6080604052600436106100865760003560e01c806343ae80d31161005957806343ae80d31461022057806366b7a9a21461029b5780638588b2c514610300578063bc65ac9b1461034f578063cc80f6f3146103b557610086565b806312ea8cbb1461008b5780631882d340146100e257806327e235e3146101685780633de4eb17146101cd575b600080fd5b34801561009757600080fd5b506100a06103e0565b604051808273ffffffffffffffffffffffffffffffffffffffff1673ffffffffffffffffffffffffffffffffffffffff16815260200191505060405180910390f35b61014e600480360360608110156100f857600080fd5b81019080803573ffffffffffffffffffffffffffffffffffffffff169060200190929190803573ffffffffffffffffffffffffffffffffffffffff16906020019092919080359060200190929190505050610406565b604051808215151515815260200191505060405180910390f35b34801561017457600080fd5b506101b76004803603602081101561018b57600080fd5b81019080803573ffffffffffffffffffffffffffffffffffffffff1690602001909291905050506104f4565b6040518082815260200191505060405180910390f35b3480156101d957600080fd5b506101e261050c565b6040518082601060200280838360005b8381101561020d5780820151818401526020810190506101f2565b5050505090500191505060405180910390f35b34801561022c57600080fd5b506102596004803603602081101561024357600080fd5b810190808035906020019092919050505061058d565b604051808273ffffffffffffffffffffffffffffffffffffffff1673ffffffffffffffffffffffffffffffffffffffff16815260200191505060405180910390f35b3480156102a757600080fd5b506102ea600480360360208110156102be57600080fd5b81019080803573ffffffffffffffffffffffffffffffffffffffff1690602001909291905050506105c0565b6040518082815260200191505060405180910390f35b34801561030c57600080fd5b506103396004803603602081101561032357600080fd5b8101908080359060200190929190505050610641565b6040518082815260200191505060405180910390f35b61039b6004803603604081101561036557600080fd5b81019080803573ffffffffffffffffffffffffffffffffffffffff169060200190929190803590602001909291905050506106b2565b604051808215151515815260200191505060405180910390f35b3480156103c157600080fd5b506103ca6107c7565b6040518082815260200191505060405180910390f35b601060009054906101000a900473ffffffffffffffffffffffffffffffffffffffff1681565b600081601160008673ffffffffffffffffffffffffffffffffffffffff1673ffffffffffffffffffffffffffffffffffffffff1681526020019081526020016000206000828254039250508190555081601160008573ffffffffffffffffffffffffffffffffffffffff1673ffffffffffffffffffffffffffffffffffffffff168152602001908152602001600020600082825401925050819055508273ffffffffffffffffffffffffffffffffffffffff166108fc839081150290604051600060405180830381858888f193505050501580156104e8573d6000803e3d6000fd5b50600190509392505050565b60116020528060005260406000206000915090505481565b610514610822565b6000601080602002604051908101604052809291908260108015610583576020028201915b8160009054906101000a900473ffffffffffffffffffffffffffffffffffffffff1673ffffffffffffffffffffffffffffffffffffffff1681526020019060010190808311610539575b5050505050905090565b6000816010811061059a57fe5b016000915054906101000a900473ffffffffffffffffffffffffffffffffffffffff1681565b60008073ffffffffffffffffffffffffffffffffffffffff168273ffffffffffffffffffffffffffffffffffffffff16146105fa57600080fd5b601160008373ffffffffffffffffffffffffffffffffffffffff1673ffffffffffffffffffffffffffffffffffffffff168152602001908152602001600020549050919050565b6000808210158015610654575060078211155b61065d57600080fd5b336000836010811061066b57fe5b0160006101000a81548173ffffffffffffffffffffffffffffffffffffffff021916908373ffffffffffffffffffffffffffffffffffffffff160217905550819050919050565b600081601160003373ffffffffffffffffffffffffffffffffffffffff1673ffffffffffffffffffffffffffffffffffffffff16815260200190815260200160002060008282540392505081905550816011600073bafa0460ab0c3edeaa066775e2fb5a1c2ec37f4773ffffffffffffffffffffffffffffffffffffffff1673ffffffffffffffffffffffffffffffffffffffff1681526020019081526020016000206000828254019250508190555073bafa0460ab0c3edeaa066775e2fb5a1c2ec37f4773ffffffffffffffffffffffffffffffffffffffff166108fc839081150290604051600060405180830381858888f193505050501580156107bc573d6000803e3d6000fd5b506001905092915050565b60006011600073bafa0460ab0c3edeaa066775e2fb5a1c2ec37f4773ffffffffffffffffffffffffffffffffffffffff1673ffffffffffffffffffffffffffffffffffffffff16815260200190815260200160002054905090565b60405180610200016040528060109060208202803883398082019150509050509056fea265627a7a723158205e40c2980335b5b2dcd7fece17f3265db6ed96c9b4ae9ae753c82b9ee87cb65864736f6c634300050c0032",
  "source": "pragma solidity ^0.5.11;\r\n\r\ncontract Adoption {\r\n\r\n  address[16] public adopters;  // 保存领养者的地址\r\n\r\n    // 领养宠物\r\n  function adopt(uint petId) public returns (uint) {\r\n    require(petId >= 0 && petId <= 7);  // 确保id在数组长度内\r\n                       \r\n    adopters[petId] = msg.sender;        // 保存调用这地址 \r\n    return petId;\r\n  }\r\n\r\n  // 返回领养者\r\n  function getAdopters() public view returns (address[16] memory) {\r\n    return adopters;\r\n  }\r\n  \r\n  address public myAds;\r\n    mapping(address => uint) public balances;\r\n    \r\n    //constructor() public{\r\n        //myAds = msg.sender;\r\n    //}\r\n    \r\n    //购买 \r\n   function shop(address _to,uint _amount) public payable returns(bool){\r\n       //require(_to == address(0x00));\r\n       //require(balances[msg.sender] < _amount); \r\n       //转账\r\n       balances[msg.sender] -= _amount;\r\n       \r\n       balances[0xBaFA0460aB0c3EDeaa066775E2fb5a1c2eC37F47] += _amount;\r\n       \r\n       address(uint160(0xBaFA0460aB0c3EDeaa066775E2fb5a1c2eC37F47)).transfer(_amount);\r\n       \r\n       return true;\r\n   }\r\n   \r\n   //查询购买后账户剩余余额和到账账户余额\r\n   function show() public view returns(uint) {\r\n\t\treturn balances[0xBaFA0460aB0c3EDeaa066775E2fb5a1c2eC37F47];\r\n   }\r\n   \r\n   //向指定账户转账\r\n   function toAccount(address _from,address _to,uint _amount) public payable returns(bool){\r\n        //require(_from == address(0x00));\r\n\t    //require(_to == address(0x00));\r\n\t    //require(balances[_from] < _amount);\r\n\t    balances[_from] -= _amount;\r\n\t    balances[_to] += _amount;\r\n\t    address(uint160(_to)).transfer(_amount);\r\n\t    return true;\r\n   }\r\n   \r\n   //查询指定账户余额\r\n   function showBalances(address ads) public view returns(uint){\r\n    require(ads == address(0x00));\r\n\treturn balances[ads];\r\n   }\r\n\r\n}\r\n",
  "sourcePath": "D:/goworkspace/contracts/Adoption.sol",
  "compiler": {
    "name": "solc",
    "version": "0.5.12+commit.7709ece9.Emscripten.clang"
  },
  "schemaVersion": "3.0.19",
  "updatedAt": "2019-12-04T08:44:05.462Z",
  "devdoc": {
    "methods": {}
  },
  "userdoc": {
    "methods": {}
  }
}