{
  "contractName": "Adoption",
  "abi": [
    {
      "constant": true,
      "inputs": [
        {
          "internalType": "uint256",
          "name": "",
          "type": "uint256"
        }
      ],
      "name": "adopters",
      "outputs": [
        {
          "internalType": "address",
          "name": "",
          "type": "address"
        }
      ],
      "payable": false,
      "stateMutability": "view",
      "type": "function"
    },
    {
      "constant": true,
      "inputs": [
        {
          "internalType": "address",
          "name": "",
          "type": "address"
        }
      ],
      "name": "balances",
      "outputs": [
        {
          "internalType": "uint256",
          "name": "",
          "type": "uint256"
        }
      ],
      "payable": false,
      "stateMutability": "view",
      "type": "function"
    },
    {
      "constant": true,
      "inputs": [],
      "name": "myAds",
      "outputs": [
        {
          "internalType": "address",
          "name": "",
          "type": "address"
        }
      ],
      "payable": false,
      "stateMutability": "view",
      "type": "function"
    },
    {
      "constant": false,
      "inputs": [
        {
          "internalType": "uint256",
          "name": "petId",
          "type": "uint256"
        }
      ],
      "name": "adopt",
      "outputs": [
        {
          "internalType": "uint256",
          "name": "",
          "type": "uint256"
        }
      ],
      "payable": false,
      "stateMutability": "nonpayable",
      "type": "function"
    },
    {
      "constant": true,
      "inputs": [],
      "name": "getAdopters",
      "outputs": [
        {
          "internalType": "address[16]",
          "name": "",
          "type": "address[16]"
        }
      ],
      "payable": false,
      "stateMutability": "view",
      "type": "function"
    },
    {
      "constant": false,
      "inputs": [
        {
          "internalType": "address",
          "name": "_to",
          "type": "address"
        },
        {
          "internalType": "uint256",
          "name": "_amount",
          "type": "uint256"
        }
      ],
      "name": "shop",
      "outputs": [
        {
          "internalType": "bool",
          "name": "",
          "type": "bool"
        }
      ],
      "payable": true,
      "stateMutability": "payable",
      "type": "function"
    },
    {
      "constant": true,
      "inputs": [],
      "name": "show",
      "outputs": [
        {
          "internalType": "uint256",
          "name": "",
          "type": "uint256"
        }
      ],
      "payable": false,
      "stateMutability": "view",
      "type": "function"
    },
    {
      "constant": false,
      "inputs": [
        {
          "internalType": "address",
          "name": "_from",
          "type": "address"
        },
        {
          "internalType": "address",
          "name": "_to",
          "type": "address"
        },
        {
          "internalType": "uint256",
          "name": "_amount",
          "type": "uint256"
        }
      ],
      "name": "toAccount",
      "outputs": [
        {
          "internalType": "bool",
          "name": "",
          "type": "bool"
        }
      ],
      "payable": true,
      "stateMutability": "payable",
      "type": "function"
    },
    {
      "constant": true,
      "inputs": [
        {
          "internalType": "address",
          "name": "ads",
          "type": "address"
        }
      ],
      "name": "showBalances",
      "outputs": [
        {
          "internalType": "uint256",
          "name": "",
          "type": "uint256"
        }
      ],
      "payable": false,
      "stateMutability": "view",
      "type": "function"
    },
    {
      "constant": true,
      "inputs": [
        {
          "internalType": "address",
          "name": "_from",
          "type": "address"
        },
        {
          "internalType": "uint256",
          "name": "_amount",
          "type": "uint256"
        }
      ],
      "name": "checkAccount",
      "outputs": [
        {
          "internalType": "bool",
          "name": "",
          "type": "bool"
        }
      ],
      "payable": false,
      "stateMutability": "view",
      "type": "function"
    }
  ],
  "bytecode": "0x608060405234801561001057600080fd5b50610a34806100206000396000f3fe6080604052600436106100915760003560e01c806343ae80d31161005957806343ae80d31461029e57806366b7a9a2146103195780638588b2c51461037e578063bc65ac9b146103cd578063cc80f6f31461043357610091565b806312ea8cbb146100965780631882d340146100ed5780631e1b9d4e1461017357806327e235e3146101e65780633de4eb171461024b575b600080fd5b3480156100a257600080fd5b506100ab61045e565b604051808273ffffffffffffffffffffffffffffffffffffffff1673ffffffffffffffffffffffffffffffffffffffff16815260200191505060405180910390f35b6101596004803603606081101561010357600080fd5b81019080803573ffffffffffffffffffffffffffffffffffffffff169060200190929190803573ffffffffffffffffffffffffffffffffffffffff16906020019092919080359060200190929190505050610484565b604051808215151515815260200191505060405180910390f35b34801561017f57600080fd5b506101cc6004803603604081101561019657600080fd5b81019080803573ffffffffffffffffffffffffffffffffffffffff1690602001909291908035906020019092919050505061062e565b604051808215151515815260200191505060405180910390f35b3480156101f257600080fd5b506102356004803603602081101561020957600080fd5b81019080803573ffffffffffffffffffffffffffffffffffffffff16906020019092919050505061068b565b6040518082815260200191505060405180910390f35b34801561025757600080fd5b506102606106a3565b6040518082601060200280838360005b8381101561028b578082015181840152602081019050610270565b5050505090500191505060405180910390f35b3480156102aa57600080fd5b506102d7600480360360208110156102c157600080fd5b8101908080359060200190929190505050610724565b604051808273ffffffffffffffffffffffffffffffffffffffff1673ffffffffffffffffffffffffffffffffffffffff16815260200191505060405180910390f35b34801561032557600080fd5b506103686004803603602081101561033c57600080fd5b81019080803573ffffffffffffffffffffffffffffffffffffffff169060200190929190505050610757565b6040518082815260200191505060405180910390f35b34801561038a57600080fd5b506103b7600480360360208110156103a157600080fd5b8101908080359060200190929190505050610778565b6040518082815260200191505060405180910390f35b610419600480360360408110156103e357600080fd5b81019080803573ffffffffffffffffffffffffffffffffffffffff169060200190929190803590602001909291905050506107e9565b604051808215151515815260200191505060405180910390f35b34801561043f57600080fd5b50610448610981565b6040518082815260200191505060405180910390f35b601060009054906101000a900473ffffffffffffffffffffffffffffffffffffffff1681565b60008073ffffffffffffffffffffffffffffffffffffffff168473ffffffffffffffffffffffffffffffffffffffff16146104be57600080fd5b600073ffffffffffffffffffffffffffffffffffffffff168373ffffffffffffffffffffffffffffffffffffffff16146104f757600080fd5b81601160008673ffffffffffffffffffffffffffffffffffffffff1673ffffffffffffffffffffffffffffffffffffffff168152602001908152602001600020541061054257600080fd5b81601160008673ffffffffffffffffffffffffffffffffffffffff1673ffffffffffffffffffffffffffffffffffffffff1681526020019081526020016000206000828254039250508190555081601160008573ffffffffffffffffffffffffffffffffffffffff1673ffffffffffffffffffffffffffffffffffffffff168152602001908152602001600020600082825401925050819055508273ffffffffffffffffffffffffffffffffffffffff166108fc839081150290604051600060405180830381858888f19350505050158015610622573d6000803e3d6000fd5b50600190509392505050565b600081601160008573ffffffffffffffffffffffffffffffffffffffff1673ffffffffffffffffffffffffffffffffffffffff1681526020019081526020016000205410156106805760009050610685565b600190505b92915050565b60116020528060005260406000206000915090505481565b6106ab6109dc565b600060108060200260405190810160405280929190826010801561071a576020028201915b8160009054906101000a900473ffffffffffffffffffffffffffffffffffffffff1673ffffffffffffffffffffffffffffffffffffffff16815260200190600101908083116106d0575b5050505050905090565b6000816010811061073157fe5b016000915054906101000a900473ffffffffffffffffffffffffffffffffffffffff1681565b60008173ffffffffffffffffffffffffffffffffffffffff16319050919050565b600080821015801561078b575060078211155b61079457600080fd5b33600083601081106107a257fe5b0160006101000a81548173ffffffffffffffffffffffffffffffffffffffff021916908373ffffffffffffffffffffffffffffffffffffffff160217905550819050919050565b60008073ffffffffffffffffffffffffffffffffffffffff168373ffffffffffffffffffffffffffffffffffffffff161461082357600080fd5b81601160003373ffffffffffffffffffffffffffffffffffffffff1673ffffffffffffffffffffffffffffffffffffffff168152602001908152602001600020541061086e57600080fd5b81601160003373ffffffffffffffffffffffffffffffffffffffff1673ffffffffffffffffffffffffffffffffffffffff16815260200190815260200160002060008282540392505081905550816011600073bafa0460ab0c3edeaa066775e2fb5a1c2ec37f4773ffffffffffffffffffffffffffffffffffffffff1673ffffffffffffffffffffffffffffffffffffffff1681526020019081526020016000206000828254019250508190555073bafa0460ab0c3edeaa066775e2fb5a1c2ec37f4773ffffffffffffffffffffffffffffffffffffffff166108fc839081150290604051600060405180830381858888f19350505050158015610976573d6000803e3d6000fd5b506001905092915050565b60006011600073bafa0460ab0c3edeaa066775e2fb5a1c2ec37f4773ffffffffffffffffffffffffffffffffffffffff1673ffffffffffffffffffffffffffffffffffffffff16815260200190815260200160002054905090565b60405180610200016040528060109060208202803883398082019150509050509056fea265627a7a72315820ab056222175463d9f5ea8f73da9600f7231fa3ccb5c93898adebc5b04406501c64736f6c634300050c0032",
  "source": "pragma solidity ^0.5.11;\r\n\r\ncontract Adoption {\r\n\r\n  address[16] public adopters;  // 保存领养者的地址\r\n\r\n    // 领养宠物\r\n  function adopt(uint petId) public returns (uint) {\r\n    require(petId >= 0 && petId <= 7);  // 确保id在数组长度内\r\n                       \r\n    adopters[petId] = msg.sender;        // 保存调用这地址 \r\n    return petId;\r\n  }\r\n\r\n  // 返回领养者\r\n  function getAdopters() public view returns (address[16] memory) {\r\n    return adopters;\r\n  }\r\n  \r\n  address public myAds;\r\n    mapping(address => uint) public balances;\r\n    \r\n    //constructor() public{\r\n        //myAds = msg.sender;\r\n    //}\r\n    \r\n    //购买 \r\n   function shop(address _to,uint _amount) public payable returns(bool){\r\n       require(_to == address(0x00));\r\n       require(balances[msg.sender] < _amount); \r\n       //转账\r\n       balances[msg.sender] -= _amount;\r\n       \r\n       balances[0xBaFA0460aB0c3EDeaa066775E2fb5a1c2eC37F47] += _amount;\r\n       \r\n       address(uint160(0xBaFA0460aB0c3EDeaa066775E2fb5a1c2eC37F47)).transfer(_amount);\r\n       \r\n       return true;\r\n   }\r\n   \r\n   //查询购买后账户剩余余额和到账账户余额\r\n   function show() public view returns(uint) {\r\n\t\treturn balances[0xBaFA0460aB0c3EDeaa066775E2fb5a1c2eC37F47];\r\n   }\r\n   \r\n   //向指定账户转账\r\n   function toAccount(address _from,address _to,uint _amount) public payable returns(bool){\r\n        require(_from == address(0x00));\r\n\t    require(_to == address(0x00));\r\n\t    require(balances[_from] < _amount);\r\n\t    balances[_from] -= _amount;\r\n\t    balances[_to] += _amount;\r\n\t    address(uint160(_to)).transfer(_amount);\r\n\t    return true;\r\n   }\r\n   \r\n   //查询指定账户余额\r\n   function showBalances(address ads) public view returns(uint){\r\n\t\t//require(ads == address(0x00));\r\n\t\treturn ads.balance;\r\n   }\r\n\r\n\t//验证账户余额是否充足  \r\n   function checkAccount(address _from,uint256 _amount) public view returns(bool){\r\n       if(balances[_from] < _amount){\r\n           return false;\r\n       }else{\r\n           return true;\r\n       }\r\n   }\r\n}\r\n",
  "sourcePath": "D:/goworkspace/contracts/Adoption.sol",
  "compiler": {
    "name": "solc",
    "version": "0.5.12+commit.7709ece9.Emscripten.clang"
  },
  "schemaVersion": "3.0.19",
  "updatedAt": "2019-12-12T03:58:58.559Z",
  "networkType": "ethereum",
  "devdoc": {
    "methods": {}
  },
  "userdoc": {
    "methods": {}
  }
}