{
  "contractName": "Shop",
  "abi": [
    {
      "inputs": [],
      "payable": false,
      "stateMutability": "nonpayable",
      "type": "constructor"
    },
    {
      "constant": true,
      "inputs": [
        {
          "internalType": "address",
          "name": "",
          "type": "address"
        }
      ],
      "name": "balances",
      "outputs": [
        {
          "internalType": "uint256",
          "name": "",
          "type": "uint256"
        }
      ],
      "payable": false,
      "stateMutability": "view",
      "type": "function"
    },
    {
      "constant": true,
      "inputs": [],
      "name": "myAds",
      "outputs": [
        {
          "internalType": "address",
          "name": "",
          "type": "address"
        }
      ],
      "payable": false,
      "stateMutability": "view",
      "type": "function"
    },
    {
      "constant": false,
      "inputs": [
        {
          "internalType": "address",
          "name": "_to",
          "type": "address"
        },
        {
          "internalType": "uint256",
          "name": "_amount",
          "type": "uint256"
        }
      ],
      "name": "shop",
      "outputs": [
        {
          "internalType": "string",
          "name": "",
          "type": "string"
        }
      ],
      "payable": true,
      "stateMutability": "payable",
      "type": "function"
    }
  ],
  "bytecode": "0x608060405234801561001057600080fd5b50336000806101000a81548173ffffffffffffffffffffffffffffffffffffffff021916908373ffffffffffffffffffffffffffffffffffffffff160217905550610488806100606000396000f3fe6080604052600436106100345760003560e01c806312ea8cbb1461003957806327e235e314610090578063bc65ac9b146100f5575b600080fd5b34801561004557600080fd5b5061004e6101bc565b604051808273ffffffffffffffffffffffffffffffffffffffff1673ffffffffffffffffffffffffffffffffffffffff16815260200191505060405180910390f35b34801561009c57600080fd5b506100df600480360360208110156100b357600080fd5b81019080803573ffffffffffffffffffffffffffffffffffffffff1690602001909291905050506101e1565b6040518082815260200191505060405180910390f35b6101416004803603604081101561010b57600080fd5b81019080803573ffffffffffffffffffffffffffffffffffffffff169060200190929190803590602001909291905050506101f9565b6040518080602001828103825283818151815260200191508051906020019080838360005b83811015610181578082015181840152602081019050610166565b50505050905090810190601f1680156101ae5780820380516001836020036101000a031916815260200191505b509250505060405180910390f35b6000809054906101000a900473ffffffffffffffffffffffffffffffffffffffff1681565b60016020528060005260406000206000915090505481565b6060600073ffffffffffffffffffffffffffffffffffffffff168373ffffffffffffffffffffffffffffffffffffffff16141561026d576040518060400160405280601c81526020017fe68ea5e694b6e88085e992b1e58c85e59cb0e59d80e697a0e695882000000000815250905061044d565b81600160008060009054906101000a900473ffffffffffffffffffffffffffffffffffffffff1673ffffffffffffffffffffffffffffffffffffffff1673ffffffffffffffffffffffffffffffffffffffff168152602001908152602001600020541015610312576040518060400160405280600d81526020017fe4bd99e9a29de4b88de8b6b32000000000000000000000000000000000000000815250905061044d565b81600160008060009054906101000a900473ffffffffffffffffffffffffffffffffffffffff1673ffffffffffffffffffffffffffffffffffffffff1673ffffffffffffffffffffffffffffffffffffffff1681526020019081526020016000206000828254039250508190555081600160008573ffffffffffffffffffffffffffffffffffffffff1673ffffffffffffffffffffffffffffffffffffffff168152602001908152602001600020600082825401925050819055508273ffffffffffffffffffffffffffffffffffffffff166108fc839081150290604051600060405180830381858888f19350505050158015610413573d6000803e3d6000fd5b506040518060400160405280600d81526020017fe8b4ade4b9b0e68890e58a9f200000000000000000000000000000000000000081525090505b9291505056fea265627a7a72315820b8bb69bc69f505cd26e1385c0a1239a7414341f4a734c2948d630f96156de05364736f6c634300050c0032",
  "source": "pragma solidity ^0.5.12;\r\n//商店 \r\ncontract Shop{\r\n    address public myAds;\r\n    mapping(address => uint) public balances;\r\n    \r\n    constructor() public{\r\n        myAds = msg.sender;\r\n    }\r\n    \r\n    //购买 \r\n   function shop(address _to,uint _amount) public payable returns(string memory){\r\n       if(_to == address(0x0)){\r\n           return \"接收者钱包地址无效 \";\r\n       }\r\n       //判断账户余额是否足够 \r\n       if(balances[myAds] < _amount){\r\n           return \"余额不足 \";\r\n       }\r\n       \r\n       //转账\r\n       balances[myAds] -= _amount;\r\n       \r\n       balances[_to] += _amount;\r\n       \r\n       address(uint160(_to)).transfer(_amount);\r\n       \r\n       return \"购买成功 \";\r\n   }\r\n   \r\n      \r\n}",
  "sourcePath": "D:/goworkspace/contracts/Shop.sol",
  "compiler": {
    "name": "solc",
    "version": "0.5.12+commit.7709ece9.Emscripten.clang"
  },
  "schemaVersion": "3.0.19",
  "updatedAt": "2019-11-29T07:28:48.532Z",
  "devdoc": {
    "methods": {}
  },
  "userdoc": {
    "methods": {}
  }
}