{
  "contractName": "tp",
  "abi": [
    {
      "inputs": [],
      "payable": true,
      "stateMutability": "payable",
      "type": "constructor"
    },
    {
      "constant": true,
      "inputs": [],
      "name": "amount",
      "outputs": [
        {
          "internalType": "uint256",
          "name": "",
          "type": "uint256"
        }
      ],
      "payable": false,
      "stateMutability": "view",
      "type": "function"
    },
    {
      "constant": true,
      "inputs": [],
      "name": "banker",
      "outputs": [
        {
          "internalType": "address",
          "name": "",
          "type": "address"
        }
      ],
      "payable": false,
      "stateMutability": "view",
      "type": "function"
    },
    {
      "constant": true,
      "inputs": [],
      "name": "persions",
      "outputs": [
        {
          "internalType": "uint256",
          "name": "",
          "type": "uint256"
        }
      ],
      "payable": false,
      "stateMutability": "view",
      "type": "function"
    },
    {
      "constant": true,
      "inputs": [
        {
          "internalType": "uint256",
          "name": "_amount",
          "type": "uint256"
        }
      ],
      "name": "investmentCheck",
      "outputs": [
        {
          "internalType": "string",
          "name": "",
          "type": "string"
        }
      ],
      "payable": false,
      "stateMutability": "view",
      "type": "function"
    },
    {
      "constant": false,
      "inputs": [
        {
          "internalType": "uint256",
          "name": "_amount",
          "type": "uint256"
        }
      ],
      "name": "investment",
      "outputs": [],
      "payable": true,
      "stateMutability": "payable",
      "type": "function"
    },
    {
      "constant": true,
      "inputs": [],
      "name": "s1",
      "outputs": [
        {
          "internalType": "uint256",
          "name": "",
          "type": "uint256"
        }
      ],
      "payable": false,
      "stateMutability": "view",
      "type": "function"
    },
    {
      "constant": true,
      "inputs": [],
      "name": "s2",
      "outputs": [
        {
          "internalType": "uint256",
          "name": "",
          "type": "uint256"
        }
      ],
      "payable": false,
      "stateMutability": "view",
      "type": "function"
    },
    {
      "constant": true,
      "inputs": [],
      "name": "s3",
      "outputs": [
        {
          "internalType": "address",
          "name": "",
          "type": "address"
        }
      ],
      "payable": false,
      "stateMutability": "view",
      "type": "function"
    }
  ],
  "bytecode": "0x608060405234600281905550600060018190555033600360006101000a81548173ffffffffffffffffffffffffffffffffffffffff021916908373ffffffffffffffffffffffffffffffffffffffff16021790555068056bc75e2d6310000060008190555061068d806100736000396000f3fe60806040526004361061007b5760003560e01c8063a5d666a91161004e578063a5d666a9146101e1578063aa8c217c14610238578063e4d4c3c014610263578063f6f75b5f146102915761007b565b80630ab9db5b146100805780633a28936d146100d75780636cc014de1461018b578063a314150f146101b6575b600080fd5b34801561008c57600080fd5b506100956102bc565b604051808273ffffffffffffffffffffffffffffffffffffffff1673ffffffffffffffffffffffffffffffffffffffff16815260200191505060405180910390f35b3480156100e357600080fd5b50610110600480360360208110156100fa57600080fd5b81019080803590602001909291905050506102e2565b6040518080602001828103825283818151815260200191508051906020019080838360005b83811015610150578082015181840152602081019050610135565b50505050905090810190601f16801561017d5780820380516001836020036101000a031916815260200191505b509250505060405180910390f35b34801561019757600080fd5b506101a0610479565b6040518082815260200191505060405180910390f35b3480156101c257600080fd5b506101cb6104ba565b6040518082815260200191505060405180910390f35b3480156101ed57600080fd5b506101f66104d9565b604051808273ffffffffffffffffffffffffffffffffffffffff1673ffffffffffffffffffffffffffffffffffffffff16815260200191505060405180910390f35b34801561024457600080fd5b5061024d610503565b6040518082815260200191505060405180910390f35b61028f6004803603602081101561027957600080fd5b8101908080359060200190929190505050610509565b005b34801561029d57600080fd5b506102a6610631565b6040518082815260200191505060405180910390f35b600360009054906101000a900473ffffffffffffffffffffffffffffffffffffffff1681565b6060813373ffffffffffffffffffffffffffffffffffffffff16311015610340576040518060400160405280600c81526020017fe4bd99e9a29de4b88de8b6b300000000000000000000000000000000000000008152509050610474565b6000600360009054906101000a900473ffffffffffffffffffffffffffffffffffffffff1673ffffffffffffffffffffffffffffffffffffffff1631600054039050828110156103ab5760405180606001604052806021815260200161063860219139915050610474565b600054831015806103f75750600054600360009054906101000a900473ffffffffffffffffffffffffffffffffffffffff1673ffffffffffffffffffffffffffffffffffffffff163110155b1561043a576040518060400160405280601581526020017fe8b584e98791e6b1a0e98791e9a29de5b7b2e6bba10000000000000000000000815250915050610474565b6040518060400160405280600981526020017fe58fafe68a95e8b58400000000000000000000000000000000000000000000008152509150505b919050565b6000600360009054906101000a900473ffffffffffffffffffffffffffffffffffffffff1673ffffffffffffffffffffffffffffffffffffffff1631905090565b60003373ffffffffffffffffffffffffffffffffffffffff1631905090565b6000600360009054906101000a900473ffffffffffffffffffffffffffffffffffffffff16905090565b60025481565b8060046000600360009054906101000a900473ffffffffffffffffffffffffffffffffffffffff1673ffffffffffffffffffffffffffffffffffffffff1673ffffffffffffffffffffffffffffffffffffffff1681526020019081526020016000206000828254019250508190555080600560003373ffffffffffffffffffffffffffffffffffffffff1673ffffffffffffffffffffffffffffffffffffffff16815260200190815260200160002060008282540392505081905550600360009054906101000a900473ffffffffffffffffffffffffffffffffffffffff1673ffffffffffffffffffffffffffffffffffffffff166108fc829081150290604051600060405180830381858888f1935050505015801561062d573d6000803e3d6000fd5b5050565b6001548156fee68a95e8b584e98791e9a29de8b685e587bae8b584e98791e6b1a0e4b88ae99990a265627a7a7231582064245d99db3bfc8d020df3131ec3009ae04d06920095fd4ce52854da91333e7d64736f6c634300050c0032",
  "source": "pragma solidity ^0.5.12;\r\ncontract tp{\r\n    \r\n    uint x;\r\n    \r\n    //人数变量 \r\n    uint public persions;\r\n    \r\n    //投资金额 \r\n    uint public amount;\r\n    \r\n    //庄家  \r\n    address public banker;\r\n    \r\n    //资金池 \r\n    mapping(address => uint) amountPool;\r\n    //投资人账户 \r\n    mapping(address => uint) invBalances;\r\n    \r\n    \r\n    \r\n    constructor() public payable{\r\n        amount = msg.value;\r\n        persions = 0;\r\n        banker = msg.sender;\r\n        x = 100000000000000000000;\r\n    }\r\n    \r\n    //验证是否可投资  \r\n    function investmentCheck(uint _amount) public view returns(string memory){\r\n        if(msg.sender.balance < _amount){\r\n             return \"余额不足\";\r\n         }\r\n         uint res = x - banker.balance;\r\n         if(res < _amount){\r\n             return \"投资金额超出资金池上限\";\r\n         }\r\n        if(_amount >= x || banker.balance >= x){\r\n            return  \"资金池金额已满\";\r\n        }\r\n        return  \"可投资\";\r\n    }\r\n    \r\n    //投资 \r\n    function investment(uint _amount) public payable{\r\n         //资金池填充金额，也就是把钱转给庄家 \r\n        amountPool[banker] += _amount;\r\n        invBalances[msg.sender] -= _amount;\r\n         address(uint160(banker)).transfer(_amount);\r\n    } \r\n    \r\n    //庄家账户 \r\n    function s1() public view returns(uint){\r\n       return banker.balance; \r\n    }\r\n    \r\n    //合约调用者账户 \r\n    function s2() public view returns(uint){\r\n       return msg.sender.balance; \r\n    }\r\n    \r\n    //庄家钱包地址 \r\n     function s3() public view returns(address){    \r\n       return banker; \r\n    }\r\n    \r\n\r\n}",
  "sourcePath": "D:/goworkspace/contracts/tp.sol",
  "compiler": {
    "name": "solc",
    "version": "0.5.12+commit.7709ece9.Emscripten.clang"
  },
  "schemaVersion": "3.0.19",
  "updatedAt": "2019-12-18T06:38:12.763Z",
  "devdoc": {
    "methods": {}
  },
  "userdoc": {
    "methods": {}
  }
}